:10000000F5C0000023C1000021C100001FC1000095
:100010001DC100001BC1000019C1000017C1000074
:1000200015C1000013C1000011C100000FC1000084
:100030000DC100000BC1000009C1000007C1000094
:1000400005C10000D2C7000001C10000FFC00000D0
:10005000FDC00000FBC00000F9C00000F5C60000B4
:10006000F5C00000BBC6000090C60000EFC0000055
:10007000EDC00000EBC00000E9C00000E7C00000D8
:1000800087C70000E3C00000E1C00000DFC000003F
:10009000DDC00000DBC00000D9C00000D7C00000F8
:1000A000D5C00000D3C0000046C70000CFC000008C
:1000B000CDC00000CBC00000C9C000000FC70000C9
:1000C000C5C00000C3C00000C1C00000BFC0000028
:1000D000BDC00000BBC00000B9C00000B7C0000038
:1000E000B5C0000000000A0B02090C0D0E08070342
:1000F00004010000000000000000000000000000FB
:1001000000000000000000000000000000000000EF
:1001100012111000000000000000000000000000AC
:100120000000000000000000000000002200250088
:1001300028002B002E0031003400020100000501D0
:1001400008010B0100002100240027002A002D00D7
:100150003000330001010000040107010A01050518
:100160000505070508080808020202020A0A08082D
:10017000040404040101010101010101030303035B
:1001800003030303040707070C0C0C0C0C0C0C0CEA
:100190000202020206060606060606060B0B0B0BFB
:1001A0000B0B0B0B01021020200808102040102020
:1001B000408002010201080402010102040810202B
:1001C0004080804020100804020180040201804029
:1001D0002010080402010804020101020408102092
:1001E00040800102040810204080220811241FBE14
:1001F000CFEFD1E2DEBFCDBF00E00CBF12E0A0E048
:10020000B2E0EAE7FAE100E00BBF02C007900D920E
:10021000A832B107D9F723E0A8E2B2E001C01D92ED
:10022000A037B207E1F710E0C6EFD0E000E006C06B
:1002300021970109802FFE010E94190BC53FD107AC
:1002400080E00807A9F775D70C943B0DD9CE90E054
:10025000FC01EC55FE4F2491825A9E4FFC01849183
:10026000882399F090E0880F991FFC01EC5BFE4F0A
:10027000A591B491FC01E65DFE4F859194918FB7F5
:10028000F894EC91E22BEC938FBF0895AF92BF925C
:10029000CF92DF92EF92FF920F931F93CF93DF9352
:1002A0006C017B018B01040F151FEB015E01AE1881
:1002B000BF08C017D10759F06991D601ED91FC91A3
:1002C0000190F081E02DC6011995892B79F7C501C0
:1002D000DF91CF911F910F91FF90EF90DF90CF9022
:1002E000BF90AF900895FC01538D448D252F30E0D1
:1002F000842F90E0821B930B541710F0CF96089533
:1003000001970895FC01918D828D981761F0A28D5F
:10031000AE0FBF2FB11D5D968C91928D9F5F9F7325
:10032000928F90E008958FEF9FEF08952FB7F89484
:100330008091340290913502A0913602B09137023B
:100340002FBF8093400290934102A0934202B0934A
:10035000430288E392E0D6DF97FF26C02FB7F894D8
:100360008091340290913502A0913602B09137020B
:100370002FBF409140025091410260914202709122
:100380004302841B950BA60BB70B40913C02509186
:100390003D0260913E0270913F0284179507A607C7
:1003A000B707B8F28FEF9FEF0895FC01918D828D12
:1003B000981731F0828DE80FF11D858D90E008953A
:1003C0008FEF9FEF0895FC01918D228D892F90E092
:1003D000805C9F4F821B91098F739927089588E352
:1003E00092E0F1DF21E0892B09F420E0822F0895CB
:1003F000FC01A48DA80FB92FB11DA35ABF4F2C919A
:10040000848D90E001968F739927848FA689B78990
:100410002C93A089B1898C91837080648C93938D87
:10042000848D981306C00288F389E02D80818F7D2A
:1004300080830895EF92FF920F931F93CF93DF93E2
:10044000EC0181E0888F9B8D8C8D98131AC0E88910
:10045000F989808185FF15C09FB7F894EE89FF89DF
:100460006083E889F98980818370806480839FBF7D
:1004700081E090E0DF91CF911F910F91FF90EF907D
:100480000895F62E0B8D10E00F5F1F4F0F7311278D
:10049000E02E8C8D8E110BC00FB607FCFACFE889C9
:1004A000F989808185FFF5CFCE01A2DFF2CFEB8DF8
:1004B000EC0FFD2FF11DE35AFF4FF0829FB7F89428
:1004C0000B8FEA89FB8980818062D0CF682F88E317
:1004D00092E0B0CFCF93DF93EC01888D8823B1F009
:1004E000AA89BB89E889F9898C9185FD03C080813F
:1004F00086FD0CC00FB607FCF7CF8C9185FFF2CFBD
:10050000808185FFEDCFCE0173DFEACFDF91CF9100
:10051000089580E090E0892B21F061DF81110E9435
:10052000000080E090E0892B49F080E090E0892B8A
:1005300029F00E94000081110E94000080E090E0FC
:10054000892B49F080E090E0892B29F00E9400007F
:1005500081110E94000080E090E0892B49F080E04A
:1005600090E0892B29F00E94000081110C9400007A
:100570000895282F30E0F901EC51FF4F9491F901D3
:10058000EC55FE4F4491225A3E4FF901249122230B
:1005900009F435C0992311F191509231F8F4E92F03
:1005A000F0E08827E952FD4F8F4F0C94190B080398
:1005B0000C03E90200030403EE020F031503190301
:1005C0001F03230327032D033103EE0235033B03EF
:1005D0003F03809180008F7780938000E22FF0E0CE
:1005E000EE0FFF1FE65DFE4FA591B4918FB7F89413
:1005F000EC91611148C040954E234C938FBF0895F4
:10060000809180008F7DE8CF80918000877FE4CF4C
:1006100084B58F7784BDE2CF84B58F7DFBCF809189
:10062000B0008F778093B000D9CF8091B0008F7DDC
:10063000F9CF809190008F7780939000CFCF8091F9
:1006400090008F7DF9CF80919000877FF5CF8091CA
:10065000A0008F778093A000C1CF8091A0008F7DF4
:10066000F9CF8091A000877FF5CF809120018F770F
:1006700080932001B3CF809120018F7DF9CF8091AD
:100680002001877FF5CF4E2BB8CF3FB7F8948091EC
:100690002F0290913002A0913102B091320226B522
:1006A000A89B05C02F3F19F00196A11DB11D3FBFAA
:1006B000BA2FA92F982F8827BC01CD01620F711D79
:1006C000811D911D42E0660F771F881F991F4A9573
:1006D000D1F708958F929F92AF92BF92CF92DF92FF
:1006E000EF92FF924B015C01D0DF6B017C01CDDF0B
:1006F0006C197D098E099F09683E7340810591053B
:10070000B0F321E0821A9108A108B10888EEC80E62
:1007100083E0D81EE11CF11C81149104A104B104F2
:1007200031F7FF90EF90DF90CF90BF90AF909F9008
:100730008F9008958F929F92AF92BF92CF92DF9247
:10074000EF92FF92FC01828158E5C52E52E0D52E32
:10075000C81AD10887FDD394CC0CDD1CCC0CDD1C51
:100760000D2C000CEE08FF08818178E8872E912C73
:10077000881A910887FD9394880C991C880C991C01
:10078000092C000CAA08BB0880818F3FC1F190E0C2
:10079000FC01EE0FFF1FE80FF91FEB52FD4F8181A7
:1007A000928133E0880F991F3A95E1F7B0E0A0E01D
:1007B00044E0B595A795979587954A95D1F7029608
:1007C0009C012F5F3F4F032E000C440B550B281943
:1007D00039094A095B09A4EBB0E0DED6A70196010E
:1007E000281939094A095B09BBD6C901FF90EF9066
:1007F000DF90CF90BF90AF909F908F90089590E042
:1008000080E0DECFCF92DF92EF92FF92CF93DF9323
:10081000EC01603282E07807BCF5653B710514F0AD
:1008200064EB70E0898128E830E0281B310987FDFE
:100830003395220F331F220F331F6901330FEE0848
:10084000FF088A8128E532E0281B310987FD3395AE
:10085000220F331F220F331F032E000C440B550BA6
:100860002C193D094E095F09DB0177FF02C0B0E09A
:10087000A0E09CD624EB30E040E050E071D6C20E00
:10088000D31EE41EF51EB601E881E03370F5298120
:1008900088E890E0821B910927FD9395880F991FA6
:1008A000880F991F681779077CF02A8188E592E004
:1008B000821B910927FD9395880F991F880F991F17
:1008C000681779070CF4CB010297880F991F4FB76F
:1008D000F8942E2F30E0F901EE0FFF1FE20FF31F07
:1008E000EB52FD4F928381834FBFDF91CF91FF90F9
:1008F000EF90DF90CF9008951F93CF93DF93EC019B
:10090000162F8881803308F04BC0862FA0DC8881A9
:10091000282F30E0F901EE0FFF1FE20FF31FEB521B
:10092000FD4F1F736081607C612B608319821A8286
:100930002CE0622F72D6829FB001112430E020E0BB
:10094000AB01420F531FFA01EE0FFF1FE40FF51F1B
:10095000EB52FD4F908196FD16C02F5F3F4F2C301C
:10096000310571F7813009F51092800082E08093A3
:1009700081001092850010928400B19A80916F00DE
:10098000826080936F00E8818E2F90E0FC01EE0F73
:10099000FF1FE80FF91FEB52FD4F808180648083B9
:1009A0008881DF91CF911F910895823061F4109278
:1009B000900080939100109295001092940088BB53
:1009C00080937100E0CF833069F41092A00082E040
:1009D0008093A1001092A5001092A40089BB80937F
:1009E0007200D1CF8111CFCF1092200182E080938D
:1009F000210110922501109224018ABB809373007B
:100A0000C2CFAF92BF92CF92DF92EF92FF920F933D
:100A10001F93CF93DF936B017A01EC01C65DDD4F2D
:100A200028813CE0389F8001399F100D1124A0904F
:100A30006503B12C27FF1FC0FB0111821082888142
:100A40008F5F888388819801280F311D87FD3A9533
:100A5000F6012A153B051CF488818C30BCF180819D
:100A60009181049680349C4908F471C0F60180811C
:100A7000918104966EC088819801280F311D87FDF1
:100A80003A952A153B05DCF68881A801480F511DCF
:100A900087FD5A95FA01EE0FFF1FE40FF51FEB5289
:100AA000FD4F808186FFCBCF8881F801E80FF11DD3
:100AB00087FDFA95CF01EE0FFF1FE80FF91FEB52EC
:100AC000FD4F808160E08F7354DDB9CF80819181CB
:100AD0002881A801420F511D27FD5A959A01FA015C
:100AE000EE0FFF1FE20FF31FEB52FD4F218132810A
:100AF000820F931FF7019183808388819801280FCB
:100B0000311D87FD3A95F901EE0FFF1FE20FF31F2C
:100B1000EB52FD4F808186FF21C08881080F111D97
:100B200087FD1A95F801EE0FFF1FE00FF11FEB5242
:100B3000FD4F808161E08F73DF91CF911F910F9105
:100B4000FF90EF90DF90CF90BF90AF9012CD80E4F8
:100B50009CE9F701918380838FEF8883DF91CF91A8
:100B60001F910F91FF90EF90DF90CF90BF90AF90CB
:100B70000895AF92BF92CF92DF92EF92FF920F93C0
:100B80001F93CF93DF9389E693E0D4DDEC0190933C
:100B900029028093280286E693E0CCDD7C018E0159
:100BA0000B5F1F4FA0900202B09003020A151B05B5
:100BB00084F00A501109A016B1065CF00A5F1F4FBD
:100BC000CA15DB0534F08E01AC16BD0614F40150D5
:100BD0001109C801CC97CD9748F4B80189E693E094
:100BE00011DE64E170E080E090E074DDE7012596BD
:100BF000C0900002D0900102CC15DD056CF02A9760
:100C0000CC16DD064CF02696EC14FD042CF0E70122
:100C1000CE14DF040CF42197CE01CC97CD9748F485
:100C2000BE0186E693E0EEDD64E170E080E090E0F6
:100C300051DDA016B106B1F4CC16DD0699F48FE4AF
:100C400090E044DC8BE490E041DC8AE090E0DF91CE
:100C5000CF911F910F91FF90EF90DF90CF90BF90B9
:100C6000AF9034CC7E01E8019ACFFC01248135811C
:100C7000232B39F421E0FB018081882341F020E01F
:100C800006C080819181E7D621E0892BC1F7822FB0
:100C900008950F931F93CF93DF93EC01888199817F
:100CA000009759F02A813B812617370730F081E001
:100CB000DF91CF911F910F9108958B016F5F7F4F4F
:100CC000E5D5009759F0998388831B830A832C818B
:100CD0003D81232B61F7FC011082E9CF80E0E8CF52
:100CE000CF93DF93EC0188819981009709F045D576
:100CF000198218821D821C821B821A82DF91CF9179
:100D00000895CF93DF93EC0170E060E0C2DF8111C2
:100D100004C0CE01DF91CF91E3CF1D821C8261E23E
:100D200072E088819981DF91CF919EC6EF92FF9208
:100D30000F931F93CF93DF938C017B016115710596
:100D400059F0EB0109900020E9F72197C61BD70B5A
:100D5000BE019FDF81110AC0C801C2DFC801DF9157
:100D6000CF911F910F91FF90EF900895F801D583D7
:100D7000C483B7018081918177D6F0CFFC01808157
:100D80009181009709F0F9C408951F920F920FB650
:100D90000F9211240BB60F922F933F934F935F93B3
:100DA0006F937F938F939F93AF93BF93EF93FF9333
:100DB00088E392E01DDBFF91EF91BF91AF919F918E
:100DC0008F917F916F915F914F913F912F910F90F4
:100DD0000BBE0F900FBE0F901F9018951F920F9291
:100DE0000FB60F9211240BB60F922F938F939F93F0
:100DF000EF93FF93E0914802F09149028081E091E6
:100E00004E02F0914F0282FD1DC0908180915102EF
:100E10008F5F8F7320915202821741F0E09151024F
:100E2000F0E0E85CFD4F958F80935102FF91EF91C8
:100E30009F918F912F910F900BBE0F900FBE0F902F
:100E40001F9018958081F2CF1F920F920FB60F92CC
:100E500011242F933F938F939F93AF93BF938091D0
:100E6000340290913502A0913602B0913702309150
:100E70002E0223E0230F2D3758F50196A11DB11D39
:100E800020932E028093340290933502A093360271
:100E9000B093370280912F0290913002A0913102DD
:100EA000B09132020196A11DB11D80932F02909343
:100EB0003002A0933102B0933202BF91AF919F9163
:100EC0008F913F912F910F900FBE0F901F9018950B
:100ED00026E8230F0296A11DB11DD2CF1F920F92BB
:100EE0000FB60F9211240BB60F922F933F934F938F
:100EF0005F936F937F938F939F93AF93BF93EF9382
:100F0000FF9348E251E064E271E090E080E079DD37
:100F1000FF91EF91BF91AF919F918F917F916F91D1
:100F20005F914F913F912F910F900BBE0F900FBE8D
:100F30000F901F9018951F920F920FB60F921124C9
:100F40000BB60F922F933F934F935F936F937F93C3
:100F50008F939F93AF93BF93EF93FF9348EA50E033
:100F600064EA70E083E090E04CDDFF91EF91BF9187
:100F7000AF919F918F917F916F915F914F913F9131
:100F80002F910F900BBE0F900FBE0F901F901895D2
:100F90001F920F920FB60F9211240BB60F922F9340
:100FA0003F934F935F936F937F938F939F93AF93F1
:100FB000BF93EF93FF9348E950E064E970E082E06B
:100FC00090E01FDDFF91EF91BF91AF919F918F91C5
:100FD0007F916F915F914F913F912F910F900BBE39
:100FE0000F900FBE0F901F9018951F920F920FB683
:100FF0000F9211240BB60F922F933F934F935F9351
:101000006F937F938F939F93AF93BF93EF93FF93D0
:1010100048E850E064E870E081E090E0F2DCFF91A5
:10102000EF91BF91AF919F918F917F916F915F9160
:101030004F913F912F910F900BBE0F900FBE0F90CD
:101040001F90189510923B0210923A0288EE93E09E
:10105000A0E0B0E080933C0290933D02A0933E025A
:10106000B0933F028EE092E0909339028093380271
:1010700085EC90E0909345028093440284EC90E0EC
:10108000909347028093460280EC90E0909349024F
:101090008093480281EC90E090934B0280934A0247
:1010A00082EC90E090934D0280934C0286EC90E0AD
:1010B00090934F0280934E0210925102109252026E
:1010C000109253021092540280916503803348F5C8
:1010D00091E0980F909365038093690390E0FC0181
:1010E000EE0FFF1FE80FF91FEB52FD4F88EB9BE05F
:1010F00092838183809165038033B8F491E0980FE7
:10110000909365038093660390E0FC01EE0FFF1F50
:10111000E80FF91FEB52FD4F88EB9BE09283818330
:1011200008958FEF80936903E5CF8FEF8093660377
:101130000895CF93DF93CDB7DEB72C970FB6F89411
:10114000DEBF0FBECDBF789484B5826084BD84B508
:10115000816084BD85B5826085BD85B5816085BDB2
:1011600080916E00816080936E001092810080916A
:1011700081008260809381008091810081608093F2
:101180008100809180008160809380008091B10017
:1011900084608093B1008091B00081608093B00042
:1011A0008091910082608093910080919100816094
:1011B0008093910080919000816080939000809155
:1011C000A10082608093A1008091A1008160809342
:1011D000A1008091A00081608093A00080912101F6
:1011E000826080932101809121018160809321019F
:1011F0008091200181608093200180917A00846039
:1012000080937A0080917A00826080937A00809146
:101210007A00816080937A0080917A008068809360
:101220007A001092C10082E012D88AE010D88CE0D7
:101230000ED861E08CE09DD9E0914802F09149021E
:1012400082E08083E0914402F09145021082E091B7
:101250004602F091470280E1808310925002E091B3
:101260004C02F0914D0286E08083E0914A02F091B9
:101270004B02808180618083E0914A02F0914B02B1
:10128000808188608083E0914A02F0914B028081E6
:1012900080688083E0914A02F0914B0280818F7DCB
:1012A000808362E070E089E693E026DB60ED77E022
:1012B00080E090E00FDA6AE070E086E693E01CDB05
:1012C00060ED77E080E090E005DA53DC88E392E0BF
:1012D0007AD8181619060CF0B6C018861F821A861E
:1012E00019861C861B86CE0107960BDD1FD897FD3D
:1012F00019C089831A820B851C850F5F1F4FB801A7
:10130000CE010796C6DC882389F32F8138858B852B
:101310009C85BE016F5F7F4F820F931FA5D31C87F3
:101320000B87E4CFEF81F885DF010D900020E9F70E
:10133000CD0109978E179F0709F091C08B859C8579
:10134000009719F0DF01309721F410923302A3E3E4
:10135000B2E02C91283509F073C0059718F030974A
:1013600009F073C010923302E3E3F2E08081893523
:1013700009F066C01A8219821C821B821E821D829D
:10138000CE010196BEDC0B851C8502301105C0F034
:101390000430110510F004E010E0EF81F885E00F53
:1013A000F11FF08010826F8178856F5F7F4FCE01D3
:1013B0000196BCDC8F819885080F191FF801F08217
:1013C00089819A81009709F442C08FD070930302FB
:1013D00060930202CE010196D1DC1A8219821C822E
:1013E0001B821E821D82CE0101968BDC0B851C8523
:1013F00006301105C0F00930110510F009E010E0C9
:10140000EF81F885E00FF11FF08010826F81788501
:101410006B5F7F4FCE01019689DC8F819885080F25
:10142000191FD801FC9289819A810097A1F05DD0A3
:101430007093010260930002CE0101969FDC99DB5C
:10144000CE0107969BDC65D841CF34968FCF60E004
:1014500070E0CB01BBCF60E070E0CB01E9CF6CE185
:1014600072E0CE01079601DC882399F08091020298
:1014700090910302019690930302809302028FE4FD
:1014800090E024D88BE490E021D88AE090E01ED848
:10149000D7CF6FE172E0CE010796E7DB882331F00A
:1014A00080910202909103020197E5CF62E272E01F
:1014B000CE010796DADB882351F0809100029091EB
:1014C000010201969093010280930002D8CF65E259
:1014D00072E0CE010796C9DB882309F4B1CF809171
:1014E0000002909101020197EDCF1F93FC01992713
:1014F0008827BC01E89411911032E9F3193010F0FB
:101500001E30C8F31B3249F01D3241F4689405C007
:1015100012D0610F711D811D911D119110531A3050
:10152000B8F33EF490958095709561957F4F8F4FFD
:101530009F4F1F910895592F482F372F262F660F41
:10154000771F881F991F660F771F881F991F620FCB
:10155000731F841F951F660F771F881F991F08959B
:10156000052E97FB16F400940FD057FD05D024D01C
:1015700007FC02D046F408C050954095309521955F
:101580003F4F4F4F5F4F08959095809570956195AF
:101590007F4F8F4F9F4F089531D0A59F900DB49FDF
:1015A000900DA49F800D911D11240895B7FFF4CFD5
:1015B000F3DF821B930B0895A1E21A2EAA1BBB1B1B
:1015C000FD010DC0AA1FBB1FEE1FFF1FA217B3070F
:1015D000E407F50720F0A21BB30BE40BF50B661F25
:1015E000771F881F991F1A9469F7609570958095E9
:1015F00090959B01AC01BD01CF010895A29FB00160
:10160000B39FC001A39F700D811D1124911DB29F36
:10161000700D811D1124911D0895991B79E004C05E
:10162000991F961708F0961B881F7A95C9F7809521
:101630000895EE0FFF1F881F8BBF0790F691E02DD6
:1016400019940F931F93CF93DF938230910510F479
:1016500082E090E0E0916E03F0916F0330E020E0D3
:10166000B0E0A0E0309799F42115310509F44AC0A3
:10167000281B390B24303105D8F58A819B816115EF
:10168000710589F1FB0193838283FE0111C04081C2
:1016900051810281138148175907E0F04817590713
:1016A00099F4109761F012960C93129713961C936D
:1016B0003296CF01DF91CF911F910F910895009342
:1016C0006E0310936F03F4CF2115310551F04217CB
:1016D000530738F0A901DB019A01BD01DF01F801D0
:1016E000C1CFEF01F9CF90936F0380936E03CDCFFD
:1016F000FE01E20FF31F8193919322503109398348
:101700002883D7CF20916C0330916D03232B41F4B4
:10171000209106023091070230936D0320936C03F1
:1017200020910402309105022115310541F42DB7B5
:101730003EB74091080250910902241B350BE091FD
:101740006C03F0916D03E217F307A0F42E1B3F0B1F
:101750002817390778F0AC014E5F5F4F2417350723
:1017600048F04E0F5F1F50936D0340936C038193BD
:1017700091939FCFF0E0E0E09CCFCF93DF93009771
:10178000E9F0FC01329713821282A0916E03B091AE
:101790006F03ED0130E020E01097A1F4208131814A
:1017A000820F931F20916C0330916D032817390726
:1017B00009F061C0F0936D03E0936C03DF91CF916A
:1017C0000895EA01CE17DF07E8F54A815B819E01A3
:1017D00041155105B1F7E901FB83EA83499159911C
:1017E000C40FD51FEC17FD0761F48081918102962B
:1017F000840F951FE90199838883828193819B835C
:101800008A83F0E0E0E012968D919C911397009707
:10181000B9F52D913C911197CD010296820F931F3E
:1018200020916C0330916D032817390739F63097F2
:1018300051F510926F0310926E03B0936D03A09355
:101840006C03BCCFD383C28340815181840F951F29
:10185000C817D90761F44E5F5F4F88819981480F9F
:10186000591F518340838A819B81938382832115F1
:10187000310509F0B0CFF0936F03E0936E039ECF74
:10188000FD01DC01C0CF13821282D7CF4F925F924D
:101890006F927F928F929F92AF92BF92CF92DF9280
:1018A000EF92FF920F931F93CF93DF938C010097DA
:1018B00091F4CB01DF91CF911F910F91FF90EF90A9
:1018C000DF90CF90BF90AF909F908F907F906F9060
:1018D0005F904F90B6CEFC01E60FF71F9C0122509F
:1018E0003109E217F30708F4AAC0D901CD91DC91C0
:1018F0001197C617D70718F1C530D10570F0CE0182
:1019000004978617970748F0C61BD70B2297C193F9
:10191000D1936D937C93CF0130DFC801DF91CF91DC
:101920001F910F91FF90EF90DF90CF90BF90AF90FD
:101930009F908F907F906F905F904F9008955B0184
:10194000AC1ABD0A4C018C0E9D1EA0916E03B09185
:101950006F03512C412CF12CE12C109731F5809123
:101960006C0390916D038815990509F05CC04616CB
:10197000570608F058C08091040290910502009724
:1019800041F48DB79EB74091080250910902841B23
:10199000950BE817F90708F052C0F0936D03E09338
:1019A0006C03F90171836083B8CF8D919C9111977D
:1019B00012966C90129713967C901397A815B90500
:1019C00059F56C0142E0C40ED11CCA14DB0420F1AD
:1019D000AC014A195B09DA011296159780F0628210
:1019E000738251834083D9016D937C93E114F10498
:1019F00071F0D7011396FC93EE9312978ECF229637
:101A00008C0F9D1FF90191838083F301EFCFF09339
:101A10006F03E0936E0381CF4816590608F42C013A
:101A20007D01D3019ACFCB010CDE7C01009739F008
:101A3000AE01B80107D0C801A0DE87016ECF10E06B
:101A400000E06BCFFB01DC0102C001900D92415020
:101A50005040D8F70895FB01DC018D910190801969
:101A60000110D9F3990B0895FB01DC0101900D924F
:0A1A70000020E1F70895F894FFCF7D
:101A7A005A005A00000070038000000000001A0299
:101A8A00460173016A02E3018201D50158490058EF
:081A9A004400594900594400C1
:00000001FF
